{
  "_format": "hh-sol-artifact-1",
  "contractName": "Marketplace",
  "sourceName": "src/backend/contracts/Marketplace.sol",
  "abi": [
    {
      "inputs": [
        {
          "internalType": "uint256",
          "name": "_feePercent",
          "type": "uint256"
        },
        {
          "internalType": "contract CalvinToken",
          "name": "_payToken",
          "type": "address"
        }
      ],
      "stateMutability": "nonpayable",
      "type": "constructor"
    },
    {
      "anonymous": false,
      "inputs": [
        {
          "indexed": false,
          "internalType": "uint256",
          "name": "itemId",
          "type": "uint256"
        },
        {
          "indexed": true,
          "internalType": "address",
          "name": "nft",
          "type": "address"
        },
        {
          "indexed": false,
          "internalType": "uint256",
          "name": "tokenId",
          "type": "uint256"
        },
        {
          "indexed": false,
          "internalType": "uint256",
          "name": "price",
          "type": "uint256"
        },
        {
          "indexed": true,
          "internalType": "address",
          "name": "seller",
          "type": "address"
        },
        {
          "indexed": true,
          "internalType": "address",
          "name": "buyer",
          "type": "address"
        }
      ],
      "name": "Bought",
      "type": "event"
    },
    {
      "anonymous": false,
      "inputs": [
        {
          "indexed": false,
          "internalType": "uint256",
          "name": "itemId",
          "type": "uint256"
        },
        {
          "indexed": true,
          "internalType": "address",
          "name": "nft",
          "type": "address"
        },
        {
          "indexed": false,
          "internalType": "uint256",
          "name": "tokenId",
          "type": "uint256"
        },
        {
          "indexed": false,
          "internalType": "uint256",
          "name": "price",
          "type": "uint256"
        },
        {
          "indexed": true,
          "internalType": "address",
          "name": "seller",
          "type": "address"
        }
      ],
      "name": "Offered",
      "type": "event"
    },
    {
      "inputs": [],
      "name": "feeAccount",
      "outputs": [
        {
          "internalType": "address payable",
          "name": "",
          "type": "address"
        }
      ],
      "stateMutability": "view",
      "type": "function"
    },
    {
      "inputs": [],
      "name": "feePercent",
      "outputs": [
        {
          "internalType": "uint256",
          "name": "",
          "type": "uint256"
        }
      ],
      "stateMutability": "view",
      "type": "function"
    },
    {
      "inputs": [
        {
          "internalType": "uint256",
          "name": "_itemId",
          "type": "uint256"
        }
      ],
      "name": "getTotalPrice",
      "outputs": [
        {
          "internalType": "uint256",
          "name": "",
          "type": "uint256"
        }
      ],
      "stateMutability": "view",
      "type": "function"
    },
    {
      "inputs": [],
      "name": "itemCount",
      "outputs": [
        {
          "internalType": "uint256",
          "name": "",
          "type": "uint256"
        }
      ],
      "stateMutability": "view",
      "type": "function"
    },
    {
      "inputs": [
        {
          "internalType": "uint256",
          "name": "",
          "type": "uint256"
        }
      ],
      "name": "items",
      "outputs": [
        {
          "internalType": "uint256",
          "name": "itemId",
          "type": "uint256"
        },
        {
          "internalType": "contract IERC721",
          "name": "nft",
          "type": "address"
        },
        {
          "internalType": "uint256",
          "name": "tokenId",
          "type": "uint256"
        },
        {
          "internalType": "uint256",
          "name": "price",
          "type": "uint256"
        },
        {
          "internalType": "address payable",
          "name": "seller",
          "type": "address"
        },
        {
          "internalType": "bool",
          "name": "sold",
          "type": "bool"
        }
      ],
      "stateMutability": "view",
      "type": "function"
    },
    {
      "inputs": [],
      "name": "listingPrice",
      "outputs": [
        {
          "internalType": "uint256",
          "name": "",
          "type": "uint256"
        }
      ],
      "stateMutability": "view",
      "type": "function"
    },
    {
      "inputs": [
        {
          "internalType": "contract IERC721",
          "name": "_nft",
          "type": "address"
        },
        {
          "internalType": "uint256",
          "name": "_tokenId",
          "type": "uint256"
        },
        {
          "internalType": "uint256",
          "name": "_price",
          "type": "uint256"
        }
      ],
      "name": "makeItem",
      "outputs": [],
      "stateMutability": "nonpayable",
      "type": "function"
    },
    {
      "inputs": [],
      "name": "payToken",
      "outputs": [
        {
          "internalType": "contract CalvinToken",
          "name": "",
          "type": "address"
        }
      ],
      "stateMutability": "view",
      "type": "function"
    },
    {
      "inputs": [
        {
          "internalType": "uint256",
          "name": "_itemId",
          "type": "uint256"
        }
      ],
      "name": "purchaseItem",
      "outputs": [],
      "stateMutability": "payable",
      "type": "function"
    }
  ],
  "bytecode": "0x60c06040523480156200001157600080fd5b506040516200178038038062001780833981810160405281019062000037919062000104565b60016000819055503373ffffffffffffffffffffffffffffffffffffffff1660808173ffffffffffffffffffffffffffffffffffffffff1660601b815250508160a081815250506702c68af0bb14000060038190555080600260006101000a81548173ffffffffffffffffffffffffffffffffffffffff021916908373ffffffffffffffffffffffffffffffffffffffff1602179055505050620001cb565b600081519050620000e78162000197565b92915050565b600081519050620000fe81620001b1565b92915050565b600080604083850312156200011857600080fd5b60006200012885828601620000ed565b92505060206200013b85828601620000d6565b9150509250929050565b600062000152826200016d565b9050919050565b6000620001668262000145565b9050919050565b600073ffffffffffffffffffffffffffffffffffffffff82169050919050565b6000819050919050565b620001a28162000159565b8114620001ae57600080fd5b50565b620001bc816200018d565b8114620001c857600080fd5b50565b60805160601c60a05161157e6200020260003960008181610252015261032f01526000818161022801526106ae015261157e6000f3fe6080604052600436106100865760003560e01c8063bfb231d211610059578063bfb231d214610137578063c78f19f914610179578063ca7dd375146101a4578063d38ea5bf146101e1578063fa00afc7146101fd57610086565b806365e17c9d1461008b5780636bfb0d01146100b65780637fd6f15c146100e157806396336b301461010c575b600080fd5b34801561009757600080fd5b506100a0610226565b6040516100ad9190610f19565b60405180910390f35b3480156100c257600080fd5b506100cb61024a565b6040516100d8919061107d565b60405180910390f35b3480156100ed57600080fd5b506100f6610250565b604051610103919061107d565b60405180910390f35b34801561011857600080fd5b50610121610274565b60405161012e9190610fa2565b60405180910390f35b34801561014357600080fd5b5061015e60048036038101906101599190610d71565b61029a565b60405161017096959493929190611098565b60405180910390f35b34801561018557600080fd5b5061018e610323565b60405161019b919061107d565b60405180910390f35b3480156101b057600080fd5b506101cb60048036038101906101c69190610d71565b610329565b6040516101d8919061107d565b60405180910390f35b6101fb60048036038101906101f69190610d71565b61038c565b005b34801561020957600080fd5b50610224600480360381019061021f9190610d22565b6108e0565b005b7f000000000000000000000000000000000000000000000000000000000000000081565b60015481565b7f000000000000000000000000000000000000000000000000000000000000000081565b600260009054906101000a900473ffffffffffffffffffffffffffffffffffffffff1681565b60046020528060005260406000206000915090508060000154908060010160009054906101000a900473ffffffffffffffffffffffffffffffffffffffff16908060020154908060030154908060040160009054906101000a900473ffffffffffffffffffffffffffffffffffffffff16908060040160149054906101000a900460ff16905086565b60035481565b600060647f0000000000000000000000000000000000000000000000000000000000000000606461035a9190611141565b600460008581526020019081526020016000206003015461037b91906111c8565b6103859190611197565b9050919050565b600260005414156103d2576040517f08c379a00000000000000000000000000000000000000000000000000000000081526004016103c99061105d565b60405180910390fd5b600260008190555060006103e582610329565b905060006004600084815260200190815260200160002090506000600260009054906101000a900473ffffffffffffffffffffffffffffffffffffffff1673ffffffffffffffffffffffffffffffffffffffff166370a08231336040518263ffffffff1660e01b815260040161045b9190610efe565b60206040518083038186803b15801561047357600080fd5b505afa158015610487573d6000803e3d6000fd5b505050506040513d601f19601f820116820180604052508101906104ab9190610d9a565b90506000841180156104bf57506001548411155b6104fe576040517f08c379a00000000000000000000000000000000000000000000000000000000081526004016104f59061103d565b60405180910390fd5b82811015610541576040517f08c379a000000000000000000000000000000000000000000000000000000000815260040161053890610ffd565b60405180910390fd5b8160040160149054906101000a900460ff1615610593576040517f08c379a000000000000000000000000000000000000000000000000000000000815260040161058a90610fbd565b60405180910390fd5b600260009054906101000a900473ffffffffffffffffffffffffffffffffffffffff1673ffffffffffffffffffffffffffffffffffffffff166323b872dd338460040160009054906101000a900473ffffffffffffffffffffffffffffffffffffffff1685600301546040518463ffffffff1660e01b815260040161061a93929190610f34565b602060405180830381600087803b15801561063457600080fd5b505af1158015610648573d6000803e3d6000fd5b505050506040513d601f19601f8201168201806040525081019061066c9190610cf9565b50600260009054906101000a900473ffffffffffffffffffffffffffffffffffffffff1673ffffffffffffffffffffffffffffffffffffffff166323b872dd337f00000000000000000000000000000000000000000000000000000000000000008560030154876106dd9190611222565b6040518463ffffffff1660e01b81526004016106fb93929190610f34565b602060405180830381600087803b15801561071557600080fd5b505af1158015610729573d6000803e3d6000fd5b505050506040513d601f19601f8201168201806040525081019061074d9190610cf9565b5060018260040160146101000a81548160ff0219169083151502179055508160010160009054906101000a900473ffffffffffffffffffffffffffffffffffffffff1673ffffffffffffffffffffffffffffffffffffffff166323b872dd303385600201546040518463ffffffff1660e01b81526004016107d093929190610f6b565b600060405180830381600087803b1580156107ea57600080fd5b505af11580156107fe573d6000803e3d6000fd5b505050503373ffffffffffffffffffffffffffffffffffffffff168260040160009054906101000a900473ffffffffffffffffffffffffffffffffffffffff1673ffffffffffffffffffffffffffffffffffffffff168360010160009054906101000a900473ffffffffffffffffffffffffffffffffffffffff1673ffffffffffffffffffffffffffffffffffffffff167f8b4c9c8a607d67b321582dd8461041b1dc2ceeca70c8b7f37f8e02095cf2e76d87866002015487600301546040516108ca939291906110f9565b60405180910390a4505050600160008190555050565b60026000541415610926576040517f08c379a000000000000000000000000000000000000000000000000000000000815260040161091d9061105d565b60405180910390fd5b600260008190555060008111610971576040517f08c379a000000000000000000000000000000000000000000000000000000000815260040161096890610fdd565b60405180910390fd5b6000600260009054906101000a900473ffffffffffffffffffffffffffffffffffffffff1673ffffffffffffffffffffffffffffffffffffffff166370a08231336040518263ffffffff1660e01b81526004016109ce9190610efe565b60206040518083038186803b1580156109e657600080fd5b505afa1580156109fa573d6000803e3d6000fd5b505050506040513d601f19601f82011682018060405250810190610a1e9190610d9a565b905060008111610a63576040517f08c379a0000000000000000000000000000000000000000000000000000000008152600401610a5a9061101d565b60405180910390fd5b60016000815480929190610a7690611340565b91905055508373ffffffffffffffffffffffffffffffffffffffff166323b872dd3330866040518463ffffffff1660e01b8152600401610ab893929190610f6b565b600060405180830381600087803b158015610ad257600080fd5b505af1158015610ae6573d6000803e3d6000fd5b505050506040518060c0016040528060015481526020018573ffffffffffffffffffffffffffffffffffffffff1681526020018481526020018381526020013373ffffffffffffffffffffffffffffffffffffffff168152602001600015158152506004600060015481526020019081526020016000206000820151816000015560208201518160010160006101000a81548173ffffffffffffffffffffffffffffffffffffffff021916908373ffffffffffffffffffffffffffffffffffffffff160217905550604082015181600201556060820151816003015560808201518160040160006101000a81548173ffffffffffffffffffffffffffffffffffffffff021916908373ffffffffffffffffffffffffffffffffffffffff16021790555060a08201518160040160146101000a81548160ff0219169083151502179055509050503373ffffffffffffffffffffffffffffffffffffffff168473ffffffffffffffffffffffffffffffffffffffff167f655a0cf9c8db81512be9a76dc1c5ae5380b8816ce6ad659cd61b715e2999d59a6001548686604051610c8f939291906110f9565b60405180910390a3506001600081905550505050565b600081519050610cb481611503565b92915050565b600081359050610cc98161151a565b92915050565b600081359050610cde81611531565b92915050565b600081519050610cf381611531565b92915050565b600060208284031215610d0b57600080fd5b6000610d1984828501610ca5565b91505092915050565b600080600060608486031215610d3757600080fd5b6000610d4586828701610cba565b9350506020610d5686828701610ccf565b9250506040610d6786828701610ccf565b9150509250925092565b600060208284031215610d8357600080fd5b6000610d9184828501610ccf565b91505092915050565b600060208284031215610dac57600080fd5b6000610dba84828501610ce4565b91505092915050565b610dcc816112c2565b82525050565b610ddb81611268565b82525050565b610dea81611256565b82525050565b610df98161127a565b82525050565b610e08816112d4565b82525050565b610e17816112f8565b82525050565b6000610e2a601183611130565b9150610e35826113e7565b602082019050919050565b6000610e4d601f83611130565b9150610e5882611410565b602082019050919050565b6000610e70603383611130565b9150610e7b82611439565b604082019050919050565b6000610e93601a83611130565b9150610e9e82611488565b602082019050919050565b6000610eb6601283611130565b9150610ec1826114b1565b602082019050919050565b6000610ed9601f83611130565b9150610ee4826114da565b602082019050919050565b610ef8816112b8565b82525050565b6000602082019050610f136000830184610de1565b92915050565b6000602082019050610f2e6000830184610dd2565b92915050565b6000606082019050610f496000830186610de1565b610f566020830185610dc3565b610f636040830184610eef565b949350505050565b6000606082019050610f806000830186610de1565b610f8d6020830185610de1565b610f9a6040830184610eef565b949350505050565b6000602082019050610fb76000830184610dff565b92915050565b60006020820190508181036000830152610fd681610e1d565b9050919050565b60006020820190508181036000830152610ff681610e40565b9050919050565b6000602082019050818103600083015261101681610e63565b9050919050565b6000602082019050818103600083015261103681610e86565b9050919050565b6000602082019050818103600083015261105681610ea9565b9050919050565b6000602082019050818103600083015261107681610ecc565b9050919050565b60006020820190506110926000830184610eef565b92915050565b600060c0820190506110ad6000830189610eef565b6110ba6020830188610e0e565b6110c76040830187610eef565b6110d46060830186610eef565b6110e16080830185610dd2565b6110ee60a0830184610df0565b979650505050505050565b600060608201905061110e6000830186610eef565b61111b6020830185610eef565b6111286040830184610eef565b949350505050565b600082825260208201905092915050565b600061114c826112b8565b9150611157836112b8565b9250827fffffffffffffffffffffffffffffffffffffffffffffffffffffffffffffffff0382111561118c5761118b611389565b5b828201905092915050565b60006111a2826112b8565b91506111ad836112b8565b9250826111bd576111bc6113b8565b5b828204905092915050565b60006111d3826112b8565b91506111de836112b8565b9250817fffffffffffffffffffffffffffffffffffffffffffffffffffffffffffffffff048311821515161561121757611216611389565b5b828202905092915050565b600061122d826112b8565b9150611238836112b8565b92508282101561124b5761124a611389565b5b828203905092915050565b600061126182611298565b9050919050565b600061127382611298565b9050919050565b60008115159050919050565b600061129182611256565b9050919050565b600073ffffffffffffffffffffffffffffffffffffffff82169050919050565b6000819050919050565b60006112cd8261131c565b9050919050565b60006112df826112e6565b9050919050565b60006112f182611298565b9050919050565b60006113038261130a565b9050919050565b600061131582611298565b9050919050565b60006113278261132e565b9050919050565b600061133982611298565b9050919050565b600061134b826112b8565b91507fffffffffffffffffffffffffffffffffffffffffffffffffffffffffffffffff82141561137e5761137d611389565b5b600182019050919050565b7f4e487b7100000000000000000000000000000000000000000000000000000000600052601160045260246000fd5b7f4e487b7100000000000000000000000000000000000000000000000000000000600052601260045260246000fd5b7f6974656d20616c726561647920736f6c64000000000000000000000000000000600082015250565b7f5072696365206d7573742062652067726561746572207468616e207a65726f00600082015250565b7f6e6f7420656e6f75676820657468657220746f20636f766572206974656d207060008201527f7269636520616e64206d61726b65742066656500000000000000000000000000602082015250565b7f496e73756666696369656e74206c697374696e67207072696365000000000000600082015250565b7f6974656d20646f65736e27742065786973740000000000000000000000000000600082015250565b7f5265656e7472616e637947756172643a207265656e7472616e742063616c6c00600082015250565b61150c8161127a565b811461151757600080fd5b50565b61152381611286565b811461152e57600080fd5b50565b61153a816112b8565b811461154557600080fd5b5056fea26469706673582212206d6152e262940150f360fe51ab820e8c2b1aac315547527ecc63bb8f23bbfc6864736f6c63430008040033",
  "linkReferences": {},
  "deployedLinkReferences": {}
}