{
  "_format": "hh-sol-artifact-1",
  "contractName": "Marketplace",
  "sourceName": "src/backend/contracts/Marketplace.sol",
  "abi": [
    {
      "inputs": [
        {
          "internalType": "uint256",
          "name": "_feePercent",
          "type": "uint256"
        },
        {
          "internalType": "contract CalvinToken",
          "name": "_payToken",
          "type": "address"
        }
      ],
      "stateMutability": "nonpayable",
      "type": "constructor"
    },
    {
      "anonymous": false,
      "inputs": [
        {
          "indexed": false,
          "internalType": "uint256",
          "name": "itemId",
          "type": "uint256"
        },
        {
          "indexed": true,
          "internalType": "address",
          "name": "nft",
          "type": "address"
        },
        {
          "indexed": false,
          "internalType": "uint256",
          "name": "tokenId",
          "type": "uint256"
        },
        {
          "indexed": false,
          "internalType": "uint256",
          "name": "price",
          "type": "uint256"
        },
        {
          "indexed": true,
          "internalType": "address",
          "name": "seller",
          "type": "address"
        },
        {
          "indexed": true,
          "internalType": "address",
          "name": "buyer",
          "type": "address"
        }
      ],
      "name": "Bought",
      "type": "event"
    },
    {
      "anonymous": false,
      "inputs": [
        {
          "indexed": false,
          "internalType": "uint256",
          "name": "itemId",
          "type": "uint256"
        },
        {
          "indexed": true,
          "internalType": "address",
          "name": "nft",
          "type": "address"
        },
        {
          "indexed": false,
          "internalType": "uint256",
          "name": "tokenId",
          "type": "uint256"
        },
        {
          "indexed": false,
          "internalType": "uint256",
          "name": "price",
          "type": "uint256"
        },
        {
          "indexed": true,
          "internalType": "address",
          "name": "seller",
          "type": "address"
        }
      ],
      "name": "Offered",
      "type": "event"
    },
    {
      "inputs": [],
      "name": "feeAccount",
      "outputs": [
        {
          "internalType": "address payable",
          "name": "",
          "type": "address"
        }
      ],
      "stateMutability": "view",
      "type": "function"
    },
    {
      "inputs": [],
      "name": "feePercent",
      "outputs": [
        {
          "internalType": "uint256",
          "name": "",
          "type": "uint256"
        }
      ],
      "stateMutability": "view",
      "type": "function"
    },
    {
      "inputs": [
        {
          "internalType": "uint256",
          "name": "_itemId",
          "type": "uint256"
        }
      ],
      "name": "getTotalPrice",
      "outputs": [
        {
          "internalType": "uint256",
          "name": "",
          "type": "uint256"
        }
      ],
      "stateMutability": "view",
      "type": "function"
    },
    {
      "inputs": [],
      "name": "itemCount",
      "outputs": [
        {
          "internalType": "uint256",
          "name": "",
          "type": "uint256"
        }
      ],
      "stateMutability": "view",
      "type": "function"
    },
    {
      "inputs": [
        {
          "internalType": "uint256",
          "name": "",
          "type": "uint256"
        }
      ],
      "name": "items",
      "outputs": [
        {
          "internalType": "uint256",
          "name": "itemId",
          "type": "uint256"
        },
        {
          "internalType": "contract IERC721",
          "name": "nft",
          "type": "address"
        },
        {
          "internalType": "uint256",
          "name": "tokenId",
          "type": "uint256"
        },
        {
          "internalType": "uint256",
          "name": "price",
          "type": "uint256"
        },
        {
          "internalType": "address payable",
          "name": "seller",
          "type": "address"
        },
        {
          "internalType": "bool",
          "name": "sold",
          "type": "bool"
        },
        {
          "internalType": "address payable",
          "name": "originalCreator",
          "type": "address"
        }
      ],
      "stateMutability": "view",
      "type": "function"
    },
    {
      "inputs": [],
      "name": "listingPrice",
      "outputs": [
        {
          "internalType": "uint256",
          "name": "",
          "type": "uint256"
        }
      ],
      "stateMutability": "view",
      "type": "function"
    },
    {
      "inputs": [
        {
          "internalType": "contract IERC721",
          "name": "_nft",
          "type": "address"
        },
        {
          "internalType": "uint256",
          "name": "_tokenId",
          "type": "uint256"
        },
        {
          "internalType": "uint256",
          "name": "_price",
          "type": "uint256"
        }
      ],
      "name": "makeItem",
      "outputs": [],
      "stateMutability": "nonpayable",
      "type": "function"
    },
    {
      "inputs": [],
      "name": "payToken",
      "outputs": [
        {
          "internalType": "contract CalvinToken",
          "name": "",
          "type": "address"
        }
      ],
      "stateMutability": "view",
      "type": "function"
    },
    {
      "inputs": [
        {
          "internalType": "uint256",
          "name": "_itemId",
          "type": "uint256"
        }
      ],
      "name": "purchaseItem",
      "outputs": [],
      "stateMutability": "payable",
      "type": "function"
    },
    {
      "inputs": [],
      "name": "royaltyPercent",
      "outputs": [
        {
          "internalType": "uint256",
          "name": "",
          "type": "uint256"
        }
      ],
      "stateMutability": "view",
      "type": "function"
    }
  ],
  "bytecode": "0x60e06040523480156200001157600080fd5b50604051620019c9380380620019c983398181016040528101906200003791906200010d565b60016000819055503373ffffffffffffffffffffffffffffffffffffffff1660808173ffffffffffffffffffffffffffffffffffffffff1660601b815250508160a081815250506702c68af0bb14000060038190555080600260006101000a81548173ffffffffffffffffffffffffffffffffffffffff021916908373ffffffffffffffffffffffffffffffffffffffff160217905550600a60c081815250505050620001d4565b600081519050620000f081620001a0565b92915050565b6000815190506200010781620001ba565b92915050565b600080604083850312156200012157600080fd5b60006200013185828601620000f6565b92505060206200014485828601620000df565b9150509250929050565b60006200015b8262000176565b9050919050565b60006200016f826200014e565b9050919050565b600073ffffffffffffffffffffffffffffffffffffffff82169050919050565b6000819050919050565b620001ab8162000162565b8114620001b757600080fd5b50565b620001c58162000196565b8114620001d157600080fd5b50565b60805160601c60a05160c0516117a662000223600039600081816102d30152610543015260008181610289015281816103b0015261048a01526000818161025f01526107ee01526117a66000f3fe6080604052600436106100915760003560e01c8063bfb231d211610059578063bfb231d21461016d578063c78f19f9146101b0578063ca7dd375146101db578063d38ea5bf14610218578063fa00afc71461023457610091565b806365e17c9d146100965780636bfb0d01146100c15780637fd6f15c146100ec57806396336b30146101175780639f67756d14610142575b600080fd5b3480156100a257600080fd5b506100ab61025d565b6040516100b891906111ae565b60405180910390f35b3480156100cd57600080fd5b506100d6610281565b6040516100e391906112d2565b60405180910390f35b3480156100f857600080fd5b50610101610287565b60405161010e91906112d2565b60405180910390f35b34801561012357600080fd5b5061012c6102ab565b6040516101399190611237565b60405180910390f35b34801561014e57600080fd5b506101576102d1565b60405161016491906112d2565b60405180910390f35b34801561017957600080fd5b50610194600480360381019061018f919061104c565b6102f5565b6040516101a797969594939291906112ed565b60405180910390f35b3480156101bc57600080fd5b506101c56103a4565b6040516101d291906112d2565b60405180910390f35b3480156101e757600080fd5b5061020260048036038101906101fd919061104c565b6103aa565b60405161020f91906112d2565b60405180910390f35b610232600480360381019061022d919061104c565b61040d565b005b34801561024057600080fd5b5061025b60048036038101906102569190610ffd565b610c7c565b005b7f000000000000000000000000000000000000000000000000000000000000000081565b60015481565b7f000000000000000000000000000000000000000000000000000000000000000081565b600260009054906101000a900473ffffffffffffffffffffffffffffffffffffffff1681565b7f000000000000000000000000000000000000000000000000000000000000000081565b60046020528060005260406000206000915090508060000154908060010160009054906101000a900473ffffffffffffffffffffffffffffffffffffffff16908060020154908060030154908060040160009054906101000a900473ffffffffffffffffffffffffffffffffffffffff16908060040160149054906101000a900460ff16908060050160009054906101000a900473ffffffffffffffffffffffffffffffffffffffff16905087565b60035481565b600060647f000000000000000000000000000000000000000000000000000000000000000060646103db91906113a4565b60046000858152602001908152602001600020600301546103fc919061142b565b61040691906113fa565b9050919050565b60026000541415610453576040517f08c379a000000000000000000000000000000000000000000000000000000000815260040161044a906112b2565b60405180910390fd5b60026000819055506000600460008381526020019081526020016000209050600061048182600001546103aa565b905060008060647f000000000000000000000000000000000000000000000000000000000000000085600301546104b8919061142b565b6104c291906113fa565b90508360050160009054906101000a900473ffffffffffffffffffffffffffffffffffffffff1673ffffffffffffffffffffffffffffffffffffffff168460040160009054906101000a900473ffffffffffffffffffffffffffffffffffffffff1673ffffffffffffffffffffffffffffffffffffffff161461057e5760647f00000000000000000000000000000000000000000000000000000000000000008560030154610571919061142b565b61057b91906113fa565b91505b6000600260009054906101000a900473ffffffffffffffffffffffffffffffffffffffff1673ffffffffffffffffffffffffffffffffffffffff166370a08231336040518263ffffffff1660e01b81526004016105db9190611193565b60206040518083038186803b1580156105f357600080fd5b505afa158015610607573d6000803e3d6000fd5b505050506040513d601f19601f8201168201806040525081019061062b9190611075565b905060008611801561063f57506001548611155b61067e576040517f08c379a000000000000000000000000000000000000000000000000000000000815260040161067590611292565b60405180910390fd5b838110156106c1576040517f08c379a00000000000000000000000000000000000000000000000000000000081526004016106b890611272565b60405180910390fd5b600260009054906101000a900473ffffffffffffffffffffffffffffffffffffffff1673ffffffffffffffffffffffffffffffffffffffff166323b872dd338760040160009054906101000a900473ffffffffffffffffffffffffffffffffffffffff168686896107329190611485565b61073c9190611485565b6040518463ffffffff1660e01b815260040161075a93929190611200565b602060405180830381600087803b15801561077457600080fd5b505af1158015610788573d6000803e3d6000fd5b505050506040513d601f19601f820116820180604052508101906107ac9190610fd4565b50600260009054906101000a900473ffffffffffffffffffffffffffffffffffffffff1673ffffffffffffffffffffffffffffffffffffffff166323b872dd337f0000000000000000000000000000000000000000000000000000000000000000856040518463ffffffff1660e01b815260040161082c93929190611200565b602060405180830381600087803b15801561084657600080fd5b505af115801561085a573d6000803e3d6000fd5b505050506040513d601f19601f8201168201806040525081019061087e9190610fd4565b508460050160009054906101000a900473ffffffffffffffffffffffffffffffffffffffff1673ffffffffffffffffffffffffffffffffffffffff168560040160009054906101000a900473ffffffffffffffffffffffffffffffffffffffff1673ffffffffffffffffffffffffffffffffffffffff16146109d157600260009054906101000a900473ffffffffffffffffffffffffffffffffffffffff1673ffffffffffffffffffffffffffffffffffffffff166323b872dd338760050160009054906101000a900473ffffffffffffffffffffffffffffffffffffffff16866040518463ffffffff1660e01b815260040161097d93929190611200565b602060405180830381600087803b15801561099757600080fd5b505af11580156109ab573d6000803e3d6000fd5b505050506040513d601f19601f820116820180604052508101906109cf9190610fd4565b505b8460010160009054906101000a900473ffffffffffffffffffffffffffffffffffffffff1673ffffffffffffffffffffffffffffffffffffffff166323b872dd8660040160009054906101000a900473ffffffffffffffffffffffffffffffffffffffff163388600201546040518463ffffffff1660e01b8152600401610a5a939291906111c9565b600060405180830381600087803b158015610a7457600080fd5b505af1158015610a88573d6000803e3d6000fd5b5050505060018560040160146101000a81548160ff0219169083151502179055508460010160009054906101000a900473ffffffffffffffffffffffffffffffffffffffff1673ffffffffffffffffffffffffffffffffffffffff16636352211e86600201546040518263ffffffff1660e01b8152600401610b0a91906112d2565b60206040518083038186803b158015610b2257600080fd5b505afa158015610b36573d6000803e3d6000fd5b505050506040513d601f19601f82011682018060405250810190610b5a9190610fab565b8560040160006101000a81548173ffffffffffffffffffffffffffffffffffffffff021916908373ffffffffffffffffffffffffffffffffffffffff1602179055503373ffffffffffffffffffffffffffffffffffffffff168560040160009054906101000a900473ffffffffffffffffffffffffffffffffffffffff1673ffffffffffffffffffffffffffffffffffffffff168660010160009054906101000a900473ffffffffffffffffffffffffffffffffffffffff1673ffffffffffffffffffffffffffffffffffffffff167f8b4c9c8a607d67b321582dd8461041b1dc2ceeca70c8b7f37f8e02095cf2e76d8989600201548a60030154604051610c649392919061135c565b60405180910390a45050505050600160008190555050565b60026000541415610cc2576040517f08c379a0000000000000000000000000000000000000000000000000000000008152600401610cb9906112b2565b60405180910390fd5b600260008190555060008111610d0d576040517f08c379a0000000000000000000000000000000000000000000000000000000008152600401610d0490611252565b60405180910390fd5b60016000815480929190610d20906115a3565b91905055506040518060e0016040528060015481526020018473ffffffffffffffffffffffffffffffffffffffff1681526020018381526020018281526020013373ffffffffffffffffffffffffffffffffffffffff1681526020016000151581526020013373ffffffffffffffffffffffffffffffffffffffff168152506004600060015481526020019081526020016000206000820151816000015560208201518160010160006101000a81548173ffffffffffffffffffffffffffffffffffffffff021916908373ffffffffffffffffffffffffffffffffffffffff160217905550604082015181600201556060820151816003015560808201518160040160006101000a81548173ffffffffffffffffffffffffffffffffffffffff021916908373ffffffffffffffffffffffffffffffffffffffff16021790555060a08201518160040160146101000a81548160ff02191690831515021790555060c08201518160050160006101000a81548173ffffffffffffffffffffffffffffffffffffffff021916908373ffffffffffffffffffffffffffffffffffffffff1602179055509050503373ffffffffffffffffffffffffffffffffffffffff168373ffffffffffffffffffffffffffffffffffffffff167f655a0cf9c8db81512be9a76dc1c5ae5380b8816ce6ad659cd61b715e2999d59a6001548585604051610f2d9392919061135c565b60405180910390a36001600081905550505050565b600081519050610f5181611714565b92915050565b600081519050610f668161172b565b92915050565b600081359050610f7b81611742565b92915050565b600081359050610f9081611759565b92915050565b600081519050610fa581611759565b92915050565b600060208284031215610fbd57600080fd5b6000610fcb84828501610f42565b91505092915050565b600060208284031215610fe657600080fd5b6000610ff484828501610f57565b91505092915050565b60008060006060848603121561101257600080fd5b600061102086828701610f6c565b935050602061103186828701610f81565b925050604061104286828701610f81565b9150509250925092565b60006020828403121561105e57600080fd5b600061106c84828501610f81565b91505092915050565b60006020828403121561108757600080fd5b600061109584828501610f96565b91505092915050565b6110a781611525565b82525050565b6110b6816114cb565b82525050565b6110c5816114b9565b82525050565b6110d4816114dd565b82525050565b6110e381611537565b82525050565b6110f28161155b565b82525050565b6000611105601f83611393565b91506111108261164a565b602082019050919050565b6000611128603383611393565b915061113382611673565b604082019050919050565b600061114b601283611393565b9150611156826116c2565b602082019050919050565b600061116e601f83611393565b9150611179826116eb565b602082019050919050565b61118d8161151b565b82525050565b60006020820190506111a860008301846110bc565b92915050565b60006020820190506111c360008301846110ad565b92915050565b60006060820190506111de600083018661109e565b6111eb60208301856110bc565b6111f86040830184611184565b949350505050565b600060608201905061121560008301866110bc565b611222602083018561109e565b61122f6040830184611184565b949350505050565b600060208201905061124c60008301846110da565b92915050565b6000602082019050818103600083015261126b816110f8565b9050919050565b6000602082019050818103600083015261128b8161111b565b9050919050565b600060208201905081810360008301526112ab8161113e565b9050919050565b600060208201905081810360008301526112cb81611161565b9050919050565b60006020820190506112e76000830184611184565b92915050565b600060e082019050611302600083018a611184565b61130f60208301896110e9565b61131c6040830188611184565b6113296060830187611184565b61133660808301866110ad565b61134360a08301856110cb565b61135060c08301846110ad565b98975050505050505050565b60006060820190506113716000830186611184565b61137e6020830185611184565b61138b6040830184611184565b949350505050565b600082825260208201905092915050565b60006113af8261151b565b91506113ba8361151b565b9250827fffffffffffffffffffffffffffffffffffffffffffffffffffffffffffffffff038211156113ef576113ee6115ec565b5b828201905092915050565b60006114058261151b565b91506114108361151b565b9250826114205761141f61161b565b5b828204905092915050565b60006114368261151b565b91506114418361151b565b9250817fffffffffffffffffffffffffffffffffffffffffffffffffffffffffffffffff048311821515161561147a576114796115ec565b5b828202905092915050565b60006114908261151b565b915061149b8361151b565b9250828210156114ae576114ad6115ec565b5b828203905092915050565b60006114c4826114fb565b9050919050565b60006114d6826114fb565b9050919050565b60008115159050919050565b60006114f4826114b9565b9050919050565b600073ffffffffffffffffffffffffffffffffffffffff82169050919050565b6000819050919050565b60006115308261157f565b9050919050565b600061154282611549565b9050919050565b6000611554826114fb565b9050919050565b60006115668261156d565b9050919050565b6000611578826114fb565b9050919050565b600061158a82611591565b9050919050565b600061159c826114fb565b9050919050565b60006115ae8261151b565b91507fffffffffffffffffffffffffffffffffffffffffffffffffffffffffffffffff8214156115e1576115e06115ec565b5b600182019050919050565b7f4e487b7100000000000000000000000000000000000000000000000000000000600052601160045260246000fd5b7f4e487b7100000000000000000000000000000000000000000000000000000000600052601260045260246000fd5b7f5072696365206d7573742062652067726561746572207468616e207a65726f00600082015250565b7f6e6f7420656e6f75676820657468657220746f20636f766572206974656d207060008201527f7269636520616e64206d61726b65742066656500000000000000000000000000602082015250565b7f6974656d20646f65736e27742065786973740000000000000000000000000000600082015250565b7f5265656e7472616e637947756172643a207265656e7472616e742063616c6c00600082015250565b61171d816114b9565b811461172857600080fd5b50565b611734816114dd565b811461173f57600080fd5b50565b61174b816114e9565b811461175657600080fd5b50565b6117628161151b565b811461176d57600080fd5b5056fea264697066735822122025d3dcb6677183e346c312b19514a8a7af7aa665ba672c28fe604f188f3d10e464736f6c63430008040033",
  "linkReferences": {},
  "deployedLinkReferences": {}
}